:04000300020F0000E8
:10008900750908E4F508FB7A0079087F0502030D74
:100A7D00E4F508750901F50A750BA2750C3F750EA5
:100A8D0001FB7A007908FF1200A67D017F010208A3
:010A9D005107
:100AD1000510E5107002050FB4F40CE50FB4010721
:080AE100B2CBE4F50FF5102281
:0A000E00120089120A7DD2AF80FEB5
:10030D00EFD3940740037FFF221205EDFED3940334
:10031D0040037FFF22EF7041EE700B90000112063B
:10032D0006F4529352941205EDB4010B9000011294
:10033D0006064293F452941205EDFEB4020A9000A3
:10034D000112060642934294EEB4030D9000011281
:10035D000606FEF45293EE4294EF640170431205CB
:10036D00EDFE700B900001120606F452915292EEC2
:10037D00B4010B9000011206064291F4529212053F
:10038D00EDB4020A90000112060642914292120546
:10039D00EDB4030D900001120606FEF45291EE42EB
:1003AD0092EF640270431205EDFE700B9000011286
:1003BD000606F452955296EEB4010B90000112060A
:1003CD00064295F452961205EDB4020A9000011200
:1003DD000606429542961205EDB4030D90000112EA
:1003ED000606FEF45295EE4296EF64037043120535
:1003FD00EDFE700B900001120606F452B152B2EEF2
:10040D00B4010B90000112060642B1F452B212056E
:10041D00EDB4020A90000112060642B142B2120575
:10042D00EDB4030D900001120606FEF452B1EE423A
:10043D00B2EF640470431205EDFE700B90000112D3
:10044D000606F452B352B4EEB4010B90000112063D
:10045D000642B3F452B41205EDB4020A9000011233
:10046D00060642B342B41205EDB4030D900001121D
:10047D000606FEF452B3EE42B4EF64057043120566
:10048D00EDFE700B900001120606F452C952CAEE31
:10049D00B4010B90000112060642C9F452CA1205AE
:1004AD00EDB4020A90000112060642C942CA1205B5
:1004BD00EDB4030D900001120606FEF452C9EE4292
:1004CD00CAEF640670431205EDFE700B9000011229
:1004DD000606F452CB52CCEEB4010B90000112067D
:1004ED000642CBF452CC1205EDB4020A9000011273
:1004FD00060642CB42CC1205EDB4030D900001125D
:10050D000606FEF452CBEE42CCEF640770431205A3
:10051D00EDFF700B900001120606F452E152E2EF6E
:10052D00B4010B90000112060642E1F452E21205ED
:10053D00EDB4020A90000112060642E142E21205F4
:10054D00EDB4030D900001120606FFF452E1EF42E7
:04055D00E27F002217
:10085100EFD3940140037FFF22EDD3940340037F44
:10086100FF22EF7004C2A98002D2A9ED700553B72F
:10087100FDC2B9BD010553B7FDD2B9BD020543B7EC
:0E08810002C2B9BD030543B702D2B97F0022FF
:10088F00EFD3940140037FFF22EDD3940340037F06
:10089F00FF22EF7004C2AB8002D2ABED700553B7ED
:1008AF00F7C2BBBD010553B7F7D2BBBD020543B7B6
:0E08BF0008C2BBBD030543B708D2BB7F0022B1
:100A3900EFD3940140037FFF22EDD3940340037F5A
:100A4900FF22EF25E025E0FFE5AF54FB4FF5AFE4CA
:020A5900FF227A
:100A5B00EFD3940140037FFF22EDD3940340037F38
:100A6B00FF22EFC43354E0FFE5AF54DF4FF5AFE4A3
:020A7B00FF2258
:10006600EFD3940140037FFF22EDD3940340037F37
:10007600FF22EFC4333354C0FFE5AF54BF4FF5AF93
:03008600E4FF2272
:1008CD00EFD3940140037FFF22EDD3940340037FC8
:1008DD00FF22EF7004C2A88002D2A8ED700553B7B5
:1008ED00FEC2B8BD010553B7FED2B8BD020543B770
:0E08FD0001C2B8BD030543B701D2B87F002287
:10090B00EFD3940140037FFF22EDD3940340037F89
:10091B00FF22EF7004C2AA8002D2AAED700553B772
:10092B00FBC2BABD010553B7FBD2BABD020543B733
:0E093B0004C2BABD030543B704D2BA7F00223E
:100AE900EFD3940140037FFF22EFC454F0FFE58F59
:080AF90054EF4FF58FE4FF22DA
:100AB800EFD3940140037FFF22EFC43354E0FFE5F6
:090AC8008F54DF4FF58FE4FF228B
:100A9E00EFD3940140037FFF22EFC4333354C0FFE2
:0A0AAE00E58F54BF4FF58FE4FF22DF
:10094900EFD3940140037FFF22EDD3940340037F4B
:10095900FF22EF7004C2AD8002D2ADED700553B72E
:10096900DFC2BDBD010553B7DFD2BDBD020543B727
:0E09790020C2BDBD030543B720D2BD7F0022C2
:10073E00EDD3940340037FFF22EF30E10543E62023
:10074E00800353E6DFEF30E00543E610800353E607
:10075E00EFED700653B6DF53B5DFBD010653B6DFBE
:10076E0043B520BD020643B62053B5DFBD03064395
:08077E00B62043B5207F0022E4
:1006E500EFD3940140037FFF22EBD3940340037FB4
:1006F500FF22BF0112ED90FE817006E0547FF0806D
:1007050011E04480F0800BEF700890FE83E0548781
:100715004DF0EB700653B6DF53B5DFBB010653B69C
:10072500DF43B520BB020643B62053B5DFBB030646
:0907350043B62043B5207F0022E9
:10098700EFD3940140037FFF22EDD3940340037F0D
:10099700FF22EF7004C2AC8002D2ACED700553B7F2
:1009A700EFC2BCBD010553B7EFD2BCBD020543B7CB
:0E09B70010C2BCBD030543B710D2BC7F0022A6
:10081100EFD3940140037FFF22EDD3940340037F84
:10082100FF22E5AF54FE4FF5AFED700653B6FE5310
:10083100B5FEBD010653B6FE43B501BD020643B682
:100841000153B5FEBD030643B60143B5017F002246
:10078600EFD3940140037FFF22EDD3940340037F10
:10079600FF22EF33333354F8FFE5AF54F74FF5AF8D
:1007A600ED700653EEFE53DFFEBD010653EEFE432B
:1007B600DF01BD020643EE0153DFFEBD030643EE35
:0707C6000143DF017F002267
:10001E00EFD3940140037FFF22EDD3940340037F7F
:10002E00FF22EFC454F0FFE5AF54EF4FF5AFED7084
:10003E000653EEFD53DFFDBD010653EEFD43DF0219
:10004E00BD020643EE0253DFFDBD030643EE02433F
:05005E00DF027F00221B
:1007CD00EFD3940140037FFF22EDD3940340037FC9
:1007DD00FF22EF25E0FFE5AF54FD4FF5AFED7006BD
:1007ED0053B6FD53B5FDBD010653B6FD43B502BD70
:1007FD00020643B60253B5FDBD030643B60243B52B
:04080D00027F002244
:10066B00EFD3948140037FFF22EBD3940340037FAE
:10067B00FF22EF247F603004705890FEC4EDF0EB46
:10068B00700653B6FB53B5FBBB010653B6FB43B524
:10069B0004BB020643B60453B5FBEB64037038434B
:1006AB00B60443B504803090FEE4EDF0EB700653D6
:1006BB00B6F753B5F7BB010653B6F743B508BB0204
:1006CB000643B60853B5F7BB030D43B60843B5084D
:0A06DB00800590FEE4EDF07F0022A0
:100A0200EDD394035026ED700653EEFB53DFFBBD8E
:100A1200010653EEFB43DF04BD020643EE0453DF3F
:100A2200FBBD030B43EE0443DF0480037FFF2290F0
:070A3200FE62EFF07F0022DD
:1000A600AD07ED7079C28C1205EDFED394034003C3
:1000B6007FFF22E58954FC4EF58990000112060661
:1000C600FED3940240037FFF22EE7006538E7F53C9
:1000D60089FB900001120606B40106438E805389FF
:1000E600FB900001120606B4020343890490000245
:1000F600120606FFE58F54FE4FF58F900003120699
:1001060033E5F0F58C900003120633F58A9000066D
:100116001206067004C28C8002D28C7F0022ED6427
:100126000160030201ACC28E1205EDFED3940340BA
:10013600037FFF22EEC454F0FFE58954CF4FF589C3
:10014600900001120606FED3940240037FFF22EEC2
:100156007006538EBF5389BF900001120606B40184
:1001660006438E405389BF900001120606B402036F
:1001760043894090000212060625E0FFE58F54FDF4
:100186004FF58F900003120633E5F0F58D900003CE
:10019600120633F58B9000061206067004C28E8096
:1001A60002D28E7F0022ED64027065538EEF9000BE
:1001B60001120606FF7006538EFB538EF7EFB4014D
:1001C60006438E04538EF7EFB40203438E08900065
:1001D6000212060625E025E0FFE58F54FB4FF58F5A
:1001E600900003120633E5F0F5D6900003120633AD
:1001F600F5D790000512060690FEA2F090000612B2
:100206000606C454F0FFE58E54EF4FF58E7F0022AC
:10021600ED6403707253D1F7900001120606FED307
:10022600940240037FFF22EE700653D1FD53D1FBAB
:10023600900001120606B4010643D10253D1FB9089
:100246000001120606B4020343D10490000212060E
:1002560006FFE5D154FE4FF5D1900003120633E5B3
:10026600F0F5D4900003120633F5D590000512067A
:100276000690FEA3F090000612060633333354F8B8
:10028600FFE5D154F78077ED6404707853D17F9001
:100296000001120606FED3940240037FFF22EE7091
:1002A6000653D1DF53D1BF900001120606B40106F2
:1002B60043D12053D1BF900001120606B402034376
:1002C600D140900002120606C454F0FFE5D154EF67
:1002D6004FF5D1900003120633FDACF0ECF5D2AF2A
:1002E600058FD390000512060690FEA4F090000636
:1002F600120606C43333335480FFE5D1547F4FF5DD
:07030600D17F00227FFF22DE
:03000B000209C522
:1009C500C0E0C0F0C083C082C0D075D000C000C0F8
:1009D50001C002C003C004C005C006C007B2EF12C3
:1009E5000AD1D007D006D005D004D003D002D0015B
:0D09F500D000D0D0D082D083D0F0D0E0323E
:03001B00020008D8
:03000800B2EE3223
:0300630002001880
:03001800B2ED3214
:03009B0002009EC2
:03009E00B2EC328F
:0300A300020B014C
:030B0100B2EB3222
:0300000002056195
:0C056100787FE4F6D8FD7581100205A833
:1005ED00BB010689828A83E0225002E722BBFE020C
:0905FD00E32289828A83E493223F
:10060600BB010CE58229F582E5833AF583E02250A9
:1006160006E92582F8E622BBFE06E92582F8E222F3
:0D062600E58229F582E5833AF583E493220D
:10063300BB0110E58229F582E5833AF583E0F5F005
:10064300A3E0225009E92582F886F008E622BBFEE2
:100653000AE92582F8E2F5F008E222E5832AF58328
:08066300E993F5F0A3E99322ED
:10056D0002000EE493A3F8E493A34003F68001F296
:10057D0008DFF48029E493A3F85407240CC8C3338F
:10058D00C4540F4420C8834004F456800146F6DF5E
:10059D00E4800B0102040810204080900003E47EEB
:1005AD00019360BCA3FF543F30E509541FFEE49353
:1005BD00A360010ECF54C025E060A840B8E493A31A
:1005CD00FAE493A3F8E493A3C8C582C8CAC583CA45
:1005DD00F0A3C8C582C8CAC583CADFE9DEE780BEFD
:0100070000F8
:00000001FF
