:04000300022F0000C8
:10131300751D03E4F51CFB7A00791C7F030207E7C4
:10121C00751C40751D017521007520C2751F017567
:10122C001E00752301E4F524FB7A00791C7F011262
:0C123C0000A67D017F0112116A53A23F41
:011248002283
:10124900E4F51C751D01F51E751FA275203F752259
:1012590001FB7A00791C7F021205807D017F010262
:02126900126B06
:100D70000530E5307002052F6414452F703FE50BF8
:100D8000D394004033D50C30E4F531F532C3E5326D
:100D9000950B7480F8653198501B74002532F582EC
:100DA00074003531F583E0FF1213230532E532700C
:0E0DB000DC053180D8E4F50BE4F52FF5302298
:0D000E0012131312121C121249D2AF80FE01
:1007E700EFD3940740037FFF22120A3BFED3940303
:1007F70040037FFF22EF7041EE700B900001120A59
:1008070054F452935294120A3BB4010B9000011214
:100817000A544293F45294120A3BFEB4020A90001F
:1008270001120A5442934294EEB4030D9000011250
:100837000A54FEF45293EE4294EF64017043120A95
:100847003BFE700B900001120A54F452915292EE43
:10085700B4010B900001120A544291F45292120A09
:100867003BB4020A900001120A5442914292120AC2
:100877003BB4030D900001120A54FEF45291EE426C
:1008870092EF64027043120A3BFE700B9000011254
:100897000A54F452955296EEB4010B900001120AD5
:1008A700544295F45296120A3BB4020A9000011280
:1008B7000A5442954296120A3BB4030D9000011266
:1008C7000A54FEF45295EE4296EF64037043120AFF
:1008D7003BFE700B900001120A54F452B152B2EE73
:1008E700B4010B900001120A5442B1F452B2120A39
:1008F7003BB4020A900001120A5442B142B2120AF2
:100907003BB4030D900001120A54FEF452B1EE42BB
:10091700B2EF64047043120A3BFE700B90000112A1
:100927000A54F452B352B4EEB4010B900001120A08
:100937005442B3F452B4120A3BB4020A90000112B3
:100947000A5442B342B4120A3BB4030D9000011299
:100957000A54FEF452B3EE42B4EF64057043120A30
:100967003BFE700B900001120A54F452C952CAEEB2
:10097700B4010B900001120A5442C9F452CA120A78
:100987003BB4020A900001120A5442C942CA120A31
:100997003BB4030D900001120A54FEF452C9EE4213
:1009A700CAEF64067043120A3BFE700B90000112F7
:1009B7000A54F452CB52CCEEB4010B900001120A48
:1009C7005442CBF452CC120A3BB4020A90000112F3
:1009D7000A5442CB42CC120A3BB4030D90000112D9
:1009E7000A54FEF452CBEE42CCEF64077043120A6E
:1009F7003BFF700B900001120A54F452E152E2EFF0
:100A0700B4010B900001120A5442E1F452E2120AB7
:100A17003BB4020A900001120A5442E142E2120A70
:100A27003BB4030D900001120A54FFF452E1EF4268
:040A3700E27F002238
:10103400EFD3940140037FFF22EDD3940340037F59
:10104400FF22EF7004C2A98002D2A9ED700553B744
:10105400FDC2B9BD010553B7FDD2B9BD020543B701
:0E10640002C2B9BD030543B702D2B97F002214
:10107200EFD3940140037FFF22EDD3940340037F1B
:10108200FF22EF7004C2AB8002D2ABED700553B702
:10109200F7C2BBBD010553B7F7D2BBBD020543B7CB
:0E10A20008C2BBBD030543B708D2BB7F0022C6
:10126B00EFD3940140037FFF22EDD3940340037F20
:10127B00FF22EF25E025E0FFE5AF54FB4FF5AFE490
:02128B00FF2240
:10128D00EFD3940140037FFF22EDD3940340037FFE
:10129D00FF22EFC43354E0FFE5AF54DF4FF5AFE469
:0212AD00FF221E
:10006600EFD3940140037FFF22EDD3940340037F37
:10007600FF22EFC4333354C0FFE5AF54BF4FF5AF93
:03008600E4FF2272
:1010B000EFD3940140037FFF22EDD3940340037FDD
:1010C000FF22EF7004C2A88002D2A8ED700553B7CA
:1010D000FEC2B8BD010553B7FED2B8BD020543B785
:0E10E00001C2B8BD030543B701D2B87F00229C
:1010EE00EFD3940140037FFF22EDD3940340037F9F
:1010FE00FF22EF7004C2AA8002D2AAED700553B788
:10110E00FBC2BABD010553B7FBD2BABD020543B748
:0E111E0004C2BABD030543B704D2BA7F002253
:1012AF00EFD3940140037FFF22EFC454F0FFE58F8B
:0812BF0054EF4FF58FE4FF220C
:10004600EFD3940140037FFF22EFC43354E0FFE572
:090056008F54DF4FF58FE4FF2207
:10002600EFD3940140037FFF22EFC4333354C0FF64
:0A003600E58F54BF4FF58FE4FF2261
:10112C00EFD3940140037FFF22EDD3940340037F60
:10113C00FF22EF7004C2AD8002D2ADED700553B743
:10114C00DFC2BDBD010553B7DFD2BDBD020543B73C
:0E115C0020C2BDBD030543B720D2BD7F0022D7
:100E9900EDD3940340037FFF22EF30E10543E620C1
:100EA900800353E6DFEF30E00543E610800353E6A5
:100EB900EFED700653B6DF53B5DFBD010653B6DF5C
:100EC90043B520BD020643B62053B5DFBD03064333
:080ED900B62043B5207F002282
:100D1700EFD3940140037FFF22EBD3940340037F7B
:100D2700FF22BF0112ED90FE817006E0547FF08034
:100D370011E04480F0800BEF700890FE83E0548749
:100D47004DF0EB700653B6DF53B5DFBB010653B664
:100D5700DF43B520BB020643B62053B5DFBB03060E
:090D670043B62043B5207F0022B1
:10116A00EFD3940140037FFF22EDD3940340037F22
:10117A00FF22EF7004C2AC8002D2ACED700553B707
:10118A00EFC2BCBD010553B7EFD2BCBD020543B7E0
:0E119A0010C2BCBD030543B710D2BC7F0022BB
:100FF400EFD3940140037FFF22EDD3940340037F9A
:10100400FF22E5AF54FE4FF5AFED700653B6FE5325
:10101400B5FEBD010653B6FE43B501BD020643B697
:101024000153B5FEBD030643B60143B5017F00225B
:100EE100EFD3940140037FFF22EDD3940340037FAE
:100EF100FF22EF33333354F8FFE5AF54F74FF5AF2B
:100F0100ED700653EEFE53DFFEBD010653EEFE43C8
:100F1100DF01BD020643EE0153DFFEBD030643EED2
:070F21000143DF017F002204
:100F2800EFD3940140037FFF22EDD3940340037F66
:100F3800FF22EFC454F0FFE5AF54EF4FF5AFED706B
:100F48000653EEFD53DFFDBD010653EEFD43DF0200
:100F5800BD020643EE0253DFFDBD030643EE024326
:050F6800DF027F002202
:100F6D00EFD3940140037FFF22EDD3940340037F21
:100F7D00FF22EF25E0FFE5AF54FD4FF5AFED700615
:100F8D0053B6FD53B5FDBD010653B6FD43B502BDC8
:100F9D00020643B60253B5FDBD030643B60243B583
:040FAD00027F00229D
:100C9D00EFD3948140037FFF22EBD3940340037F76
:100CAD00FF22EF247F603004705890FEC4EDF0EB0E
:100CBD00700653B6FB53B5FBBB010653B6FB43B5EC
:100CCD0004BB020643B60453B5FBEB640370384313
:100CDD00B60443B504803090FEE4EDF0EB7006539E
:100CED00B6F753B5F7BB010653B6F743B508BB02CC
:100CFD000643B60853B5F7BB030D43B60843B50815
:0A0D0D00800590FEE4EDF07F002267
:1011E500EDD394035026ED700653EEFB53DFFBBDA4
:1011F500010653EEFB43DF04BD020643EE0453DF55
:10120500FBBD030B43EE0443DF0480037FFF229005
:07121500FE62EFF07F0022F2
:10058000AD07ED7079C28C120A3BFED39403400391
:100590007FFF22E58954FC4EF589900001120A5430
:1005A000FED3940240037FFF22EE7006538E7F53EA
:1005B00089FB900001120A54B40106438E805389CE
:1005C000FB900001120A54B4020343890490000214
:1005D000120A54FFE58F54FE4FF58F900003120A64
:1005E00081E5F0F58C900003120A81F58A900006EF
:1005F000120A547004C28C8002D28C7F0022ED64F7
:10060000016003020686C28E120A3BFED3940340A9
:10061000037FFF22EEC454F0FFE58954CF4FF589E4
:10062000900001120A54FED3940240037FFF22EE91
:100630007006538EBF5389BF900001120A54B40153
:1006400006438E405389BF900001120A54B402033E
:10065000438940900002120A5425E0FFE58F54FDC3
:100660004FF58F900003120A81E5F0F58D9000039D
:10067000120A81F58B900006120A547004C28E8013
:1006800002D28E7F0022ED64027065538EEF9000DF
:1006900001120A54FF7006538EFB538EF7EFB4011C
:1006A00006438E04538EF7EFB40203438E08900086
:1006B00002120A5425E025E0FFE58F54FB4FF58F29
:1006C000900003120A81E5F0F5D6900003120A812A
:1006D000F5D7900005120A5490FEA2F09000061281
:1006E0000A54C454F0FFE58E54EF4FF58E7F00227C
:1006F000ED6403707253D1F7900001120A54FED3D7
:10070000940240037FFF22EE700653D1FD53D1FBCC
:10071000900001120A54B4010643D10253D1FB9058
:100720000001120A54B4020343D104900002120AD9
:1007300054FFE5D154FE4FF5D1900003120A81E534
:10074000F0F5D4900003120A81F5D5900005120A45
:100750005490FEA3F0900006120A5433333354F839
:10076000FFE5D154F78077ED6404707853D17F9022
:100770000001120A54FED3940240037FFF22EE7060
:100780000653D1DF53D1BF900001120A54B40106C1
:1007900043D12053D1BF900001120A54B402034345
:1007A000D140900002120A54C454F0FFE5D154EF36
:1007B0004FF5D1900003120A81FDACF0ECF5D2AFF9
:1007C000058FD3900005120A5490FEA4F090000605
:1007D000120A54C43333335480FFE5D1547F4FF5AC
:0707E000D17F00227FFF2200
:03000B00020008E8
:03000800B2EF3222
:03001B00020040A0
:03004000B2EE32EB
:030063000211A8DF
:1011A800C0E0C0F0C083C082C0D075D000C000C00D
:1011B80001C002C003C004C005C006C007B2ED12DA
:1011C8000D70D007D006D005D004D003D002D001CE
:0D11D800D000D0D0D082D083D0F0D0E03253
:03009B0002005F01
:03005F00B2EC32CE
:0300A30002008ECA
:03008E00B2EB32A0
:0800A6008F258B268A2789288B
:1000AE00E5256401600302021CF508F509F50AF561
:1000BE000BF50CF529F52A7440252AF582740135C5
:1000CE0029F583E4F0052AE52A70020529648045A6
:1000DE002970E4E4F529F52A7400252AF5827400C6
:1000EE003529F583E4F0052AE52A70020529648096
:1000FE00452970E4AB26AA27A928120A3BFFE598EA
:10010E00543F4FF598EF64C06008EF6440600302FF
:10011E0001D1900002120BAB7F807E8D7D5B7C0047
:10012E00120AF58F2E8E2D8D2C8C2BE4FFFE7D0169
:10013E00FCAB2EAA2DA92CA82BC3120B8740037F34
:10014E00FF22C3E4952EF52EE4952DF52D74019521
:10015E002CF52CE4952BF52BAB26AA27A92890007D
:10016E0001120A54FB6401702CC28E538EFE538909
:10017E00BF5389CF438E40AF2EAE2DAD2CAC2B7816
:10018E0008120B988F8D852E8BC2AB5389BF538F60
:10019E00FDD28E8062EB64027026538EEF438E0189
:1001AE00538EF7438E04AF2EAE2DAD2CAC2B7808AC
:1001BE00120B988FD6852ED753AFFB438E108037F8
:1001CE007FFF22AB26AA27A928120A3BFF701390A5
:1001DE000008120A54B40105438E20801A538EDF94
:1001EE008015EFB48011900008120A54B401054333
:1001FE008780800353877FAB26AA27A92890000704
:10020E00120A547004C29C8002D29C7F0022E52503
:10021E0064026003020315F50DF50EF50FF510F5EA
:10022E0011F529F52A74E0252AF58274013529F590
:10023E0083E4F0052AE52A700205296480452970B9
:10024E00E4E4F529F52A7480252AF582740035290F
:10025E00F583E4F0052AE52A700205296480452914
:10026E0070E4AB26AA27A928120A3BFF64C06005DA
:10027E00EF64407075EFB4C005439A808003539AC3
:10028E007F900002120BAB7F807E8D7D5B7C001217
:10029E000AF58F2E8E2D8D2C8C2BE4FFFE7D01FC0E
:1002AE00AB2EAA2DA92CA82BC3120B8740037FFFC0
:1002BE0022C3E4952EF52EE4952DF52D7401952C83
:1002CE00F52CE4952BF52B538EEF538EF7438E04BE
:1002DE00AF2EAE2DAD2CAC2B7808120B988FD68589
:1002EE002ED753AFFB438E1080037FFF22AB26AA7F
:1002FE0027A928900007120A54C454F0FFE59A5417
:10030E00EF4FF59A7F0022E525640360030204494E
:10031E00F512F513F514F515F516F529F52A746091
:10032E00252AF58274023529F583E4F0052AE52A9B
:10033E00700205296440452970E4E4F529F52A7414
:10034E0000252AF58274013529F583E4F0052AE5A6
:10035E002A700205296440452970E4AB26AA27A914
:10036E0028120A3BFF64C06008EF64406003020479
:10037E002CEFB4C00543AC80800353AC7F900002D9
:10038E00120BAB7F807E8D7D5B7C00120AF58F2E6B
:10039E008E2D8D2C8C2BE4FFFE7D01FCAB2EAA2D19
:1003AE00A92CA82BC3120B8740037FFF22C3E49511
:1003BE002EF52EE4952DF52D7401952CF52CE49546
:1003CE002BF52BAB26AA27A928900001120A54FB65
:1003DE00B4031D43AC40AF2EAE2DAD2CAC2B780824
:1003EE00120B988FD4852ED553D1F043D10A80317C
:1003FE00EB64027026538EEF53ACBF538EF7438ED1
:10040E0004AF2EAE2DAD2CAC2B7808120B988FD6D8
:10041E00852ED753AFFB438E1080067FFF227FFFC2
:10042E0022AB26AA27A928900007120A54C454F01A
:10043E00FFE5AC54EF4FF5AC7F0022E52564046078
:10044E000302057DF517F518F519F51AF51BF529B3
:10045E00F52A74A0252AF58274023529F583E4F075
:10046E00052AE52A700205296420452970E4E4F581
:10047E0029F52A74C0252AF58274013529F583E4FD
:10048E00F0052AE52A700205296420452970E4AB9F
:10049E0026AA27A928120A3BFF64C06008EF644011
:1004AE006003020560EFB4C005438480800353846B
:1004BE007F900002120BAB7F807E8D7D5B7C0012E5
:1004CE000AF58F2E8E2D8D2C8C2BE4FFFE7D01FCDC
:1004DE00AB2EAA2DA92CA82BC3120B8740037FFF8E
:1004EE0022C3E4952EF52EE4952DF52D7401952C51
:1004FE00F52CE4952BF52BAB26AA27A92890000105
:10050E00120A54FBB4041D438440AF2EAE2DAD2C05
:10051E00AC2B7808120B988FD2852ED353D10F4364
:10052E00D1A08031EB64027026538EEF5384BF53FB
:10053E008EF7438E04AF2EAE2DAD2CAC2B78081259
:10054E000B988FD6852ED753AFFB438E1080067F28
:10055E00FF227FFF22AB26AA27A928900007120AA6
:10056E0054C454F0FFE58454EF4FF5847F00227F8E
:01057E00FF7D
:01057F002259
:0A1323008F99750A01E50A70FC229B
:1012C700120A3BFF600C121323740129F9E43AFA5E
:0312D70080EE2284
:0A132D008F9B750F01E50F70FC2285
:1012DA00120A3BFF600C12132D740129F9E43AFA41
:0312EA0080EE2271
:0A1337008FAD751401E51470FC225F
:1012ED00120A3BFF600C121337740129F9E43AFA24
:0312FD0080EE225E
:0A1341008F85751901E51970FC2273
:10130000120A3BFF600C121341740129F9E43AFA06
:0313100080EE224A
:05001E00AE07021323F0
:03002300020FB118
:100FB100C0E0C083C082C0D075D000C00730982087
:100FC100C298E50BC394804003750B00AF0B050B72
:100FD10074002FF582E43400F583E599F0750C0572
:100FE100309905C299750A00D007D0D0D082D0833C
:030FF100D0E0321B
:03004300020DBEED
:100DBE00C0E0C083C082C0D075D000C007E59A30B5
:100DCE00E021539AFEE510C394804003751000AFE6
:100DDE0010051074802FF582E43400F583E59BF046
:100DEE00751105E59A30E106539AFD750F00D0078F
:090DFE00D0D0D082D083D0E032C5
:03008B00020E075B
:100E0700C0E0C083C082C0D075D000C007E5AC3059
:100E1700E02153ACFEE515C394404003751500AFC0
:100E270015051574002FF582E43401F583E5ADF05F
:100E3700751605E5AC30E10653ACFD751400D00717
:090E4700D0D0D082D083D0E0327B
:03009300020E500A
:100E5000C0E0C083C082C0D075D000C007E5843038
:100E6000E0215384FEE51AC394204003751A00AFB5
:100E70001A051A74C02FF582E43401F583E585F074
:100E8000751B05E58430E1065384FD751900D00714
:090E9000D0D0D082D083D0E03232
:03000000020C11DE
:0C0C1100787FE4F6D8FD758132020C58A3
:100A3B00BB010689828A83E0225002E722BBFE02B9
:090A4B00E32289828A83E49322EC
:100A5400BB010CE58229F582E5833AF583E0225057
:100A640006E92582F8E622BBFE06E92582F8E222A1
:0D0A7400E58229F582E5833AF583E49322BB
:100A8100BB0110E58229F582E5833AF583E0F5F0B3
:100A9100A3E0225009E92582F886F008E622BBFE90
:100AA1000AE92582F8E2F5F008E222E5832AF583D6
:080AB100E993F5F0A3E993229B
:100AB90075F008758200EF2FFFEE33FECD33CDCCF4
:100AC90033CCC58233C5829BED9AEC99E582984077
:100AD9000CF582EE9BFEED9AFDEC99FC0FD5F0D654
:100AE900E4CEFBE4CDFAE4CCF9A88222B800C1B97E
:100AF9000059BA002DEC8BF084CFCECDFCE5F0CBBC
:100B0900F97818EF2FFFEE33FEED33FDEC33FCEBF4
:100B190033FB10D703994004EB99FB0FD8E5E4F9AF
:100B2900FA227818EF2FFFEE33FEED33FDEC33FC9C
:100B3900C933C910D7059BE99A4007EC9BFCE99A90
:100B4900F90FD8E0E4C9FAE4CCFB2275F010EF2FD5
:100B5900FFEE33FEED33FDCC33CCC833C810D707D5
:100B69009BEC9AE899400AED9BFDEC9AFCE899F810
:0E0B79000FD5F0DAE4CDFBE4CCFAE4C8F922A3
:100B8700EB9FF5F0EA9E42F0E99D42F0E89C45F0C4
:010B9700223B
:100B9800E8600FECC313FCED13FDEE13FEEF13FF3B
:030BA800D8F1225F
:100BAB00BB010DE58229F582E5833AF583020BE85B
:100BBB005007E92582F8020BDBBBFE07E92582F81B
:100BCB00020BF4E58229F582E5833AF583020C01E9
:100C1D0002000EE493A3F8E493A34003F68001F2DF
:100C2D0008DFF48029E493A3F85407240CC8C333D8
:100C3D00C4540F4420C8834004F456800146F6DFA7
:100C4D00E4800B0102040810204080900003E47E34
:100C5D00019360BCA3FF543F30E509541FFEE4939C
:100C6D00A360010ECF54C025E060A840B8E493A363
:100C7D00FAE493A3F8E493A3C8C582C8CAC583CA8E
:100C8D00F0A3C8C582C8CAC583CADFE9DEE780BE46
:0100070000F8
:0D0BDB00E6FB08E6F908E6FA08E6CBF8228A
:0C0BE800E0F8A3E0F9A3E0FAA3E0FB2290
:0D0BF400E2FB08E2F908E2FA08E2CBF82281
:100C0100E493F8740193F9740293FA740393FB2249
:00000001FF
