:10000300E4F50A750B03FB7A00790A7F0312057086
:10001300E4F50A750B0CFB7A00790A7F050205707B
:100A5F00750A40750B01750F00750EC2750D017586
:100A6F000C00751101E4F512FB7A00790A7F01126F
:100A7F0000967D017F01120E7D53A23F750A4075CE
:100A8F000B04750F00750EC2750D01750C007511F5
:100A9F0001E4F512FB7A00790A7F041200967D01BA
:0D0AAF007F01120046E5BA54FB4404F5BA7D
:010ABC002217
:10096200120003120A5FD2AFE520D394004033D5C0
:100972002130E4F508F509C3E50995207480F8658E
:100982000898501B74002509F58274003508F58318
:10099200E0FF1210100509E50970DC050880D8E4B3
:1009A200F520E52FD394004033D53030E4F508F537
:1009B20009C3E509952F7480F8650898501B74C027
:1009C2002509F58274013508F583E0FF120FF2055F
:1009D20009E50970DC050880D8E4F52F7F14120FB1
:0309E200D6808537
:0F0FD6007D607C09ED1D70011C144C70F7DFF17C
:010FE50022E9
:10057000EFD3940740037FFF221207C4FED39403F6
:1005800040037FFF22EF7041EE700B9000011207D5
:10059000DDF4529352941207C4B4010B900001127F
:1005A00007DD4293F452941207C4FEB4020A90008D
:1005B000011207DD42934294EEB4030D9000011244
:1005C00007DDFEF45293EE4294EF6401704312078C
:1005D000C4FE700B9000011207DDF452915292EEAE
:1005E000B4010B9000011207DD4291F45292120700
:1005F000C4B4020A9000011207DD42914292120730
:10060000C4B4030D9000011207DDFEF45291EE42D6
:1006100092EF640270431207C4FE700B9000011247
:1006200007DDF452955296EEB4010B9000011207CB
:10063000DD4295F452961207C4B4020A90000112EA
:1006400007DD429542961207C4B4030D90000112D3
:1006500007DDFEF45295EE4296EF640370431207F5
:10066000C4FE700B9000011207DDF452B152B2EEDD
:10067000B4010B9000011207DD42B1F452B212072F
:10068000C4B4020A9000011207DD42B142B212075F
:10069000C4B4030D9000011207DDFEF452B1EE4226
:1006A000B2EF640470431207C4FE700B9000011295
:1006B00007DDF452B352B4EEB4010B9000011207FF
:1006C000DD42B3F452B41207C4B4020A900001121E
:1006D00007DD42B342B41207C4B4030D9000011207
:1006E00007DDFEF452B3EE42B4EF64057043120727
:1006F000C4FE700B9000011207DDF452C952CAEE1D
:10070000B4010B9000011207DD42C9F452CA12076E
:10071000C4B4020A9000011207DD42C942CA12079E
:10072000C4B4030D9000011207DDFEF452C9EE427D
:10073000CAEF640670431207C4FE700B90000112EA
:1007400007DDF452CB52CCEEB4010B90000112073E
:10075000DD42CBF452CC1207C4B4020A900001125D
:1007600007DD42CB42CC1207C4B4030D9000011246
:1007700007DDFEF452CBEE42CCEF64077043120764
:10078000C4FF700B9000011207DDF452E152E2EF5A
:10079000B4010B9000011207DD42E1F452E21207AE
:1007A000C4B4020A9000011207DD42E142E21207DE
:1007B000C4B4030D9000011207DDFFF452E1EF42D3
:0407C000E27F0022B2
:100D4700EFD3940140037FFF22EDD3940340037F49
:100D5700FF22EF7004C2A98002D2A9ED700553B734
:100D6700FDC2B9BD010553B7FDD2B9BD020543B7F1
:0E0D770002C2B9BD030543B702D2B97F002204
:100D8500EFD3940140037FFF22EDD3940340037F0B
:100D9500FF22EF7004C2AB8002D2ABED700553B7F2
:100DA500F7C2BBBD010553B7F7D2BBBD020543B7BB
:0E0DB50008C2BBBD030543B708D2BB7F0022B6
:100F1500EFD3940140037FFF22EDD3940340037F79
:100F2500FF22EF25E025E0FFE5AF54FB4FF5AFE4E9
:020F3500FF2299
:100F3700EFD3940140037FFF22EDD3940340037F57
:100F4700FF22EFC43354E0FFE5AF54DF4FF5AFE4C2
:020F5700FF2277
:100EF200EFD3940140037FFF22EDD3940340037F9D
:100F0200FF22EFC4333354C0FFE5AF54BF4FF5AFF8
:030F1200E4FF22D7
:100DC300EFD3940140037FFF22EDD3940340037FCD
:100DD300FF22EF7004C2A88002D2A8ED700553B7BA
:100DE300FEC2B8BD010553B7FED2B8BD020543B775
:0E0DF30001C2B8BD030543B701D2B87F00228C
:100E0100EFD3940140037FFF22EDD3940340037F8E
:100E1100FF22EF7004C2AA8002D2AAED700553B777
:100E2100FBC2BABD010553B7FBD2BABD020543B738
:0E0E310004C2BABD030543B704D2BA7F002243
:100F7200EFD3940140037FFF22EFC454F0FFE58FCB
:080F820054EF4FF58FE4FF224C
:100F5900EFD3940140037FFF22EFC43354E0FFE550
:090F69008F54DF4FF58FE4FF22E5
:10002600EFD3940140037FFF22EFC4333354C0FF64
:0A003600E58F54BF4FF58FE4FF2261
:100E3F00EFD3940140037FFF22EDD3940340037F50
:100E4F00FF22EF7004C2AD8002D2ADED700553B733
:100E5F00DFC2BDBD010553B7DFD2BDBD020543B72C
:0E0E6F0020C2BDBD030543B720D2BD7F0022C7
:100BF100EDD3940340037FFF22EF30E10543E6206C
:100C0100800353E6DFEF30E00543E610800353E64F
:100C1100EFED700653B6DF53B5DFBD010653B6DF06
:100C210043B520BD020643B62053B5DFBD030643DD
:080C3100B62043B5207F00222C
:100ABD00EFD3940140037FFF22EBD3940340037FD8
:100ACD00FF22BF0112ED90FE817006E0547FF08091
:100ADD0011E04480F0800BEF700890FE83E05487A6
:100AED004DF0EB700653B6DF53B5DFBB010653B6C1
:100AFD00DF43B520BB020643B62053B5DFBB03066B
:090B0D0043B62043B5207F00220D
:100E7D00EFD3940140037FFF22EDD3940340037F12
:100E8D00FF22EF7004C2AC8002D2ACED700553B7F7
:100E9D00EFC2BCBD010553B7EFD2BCBD020543B7D0
:0E0EAD0010C2BCBD030543B710D2BC7F0022AB
:100D0700EFD3940140037FFF22EDD3940340037F89
:100D1700FF22E5AF54FE4FF5AFED700653B6FE5315
:100D2700B5FEBD010653B6FE43B501BD020643B687
:100D37000153B5FEBD030643B60143B5017F00224B
:100C3900EFD3940140037FFF22EDD3940340037F58
:100C4900FF22EF33333354F8FFE5AF54F74FF5AFD5
:100C5900ED700653EEFE53DFFEBD010653EEFE4373
:100C6900DF01BD020643EE0153DFFEBD030643EE7D
:070C79000143DF017F0022AF
:10004600EFD3940140037FFF22EDD3940340037F57
:10005600FF22EFC454F0FFE5AF54EF4FF5AFED705C
:100066000653EEFD53DFFDBD010653EEFD43DF02F1
:10007600BD020643EE0253DFFDBD030643EE024317
:05008600DF027F0022F3
:100C8000EFD3940140037FFF22EDD3940340037F11
:100C9000FF22EF25E0FFE5AF54FD4FF5AFED700605
:100CA00053B6FD53B5FDBD010653B6FD43B502BDB8
:100CB000020643B60253B5FDBD030643B60243B573
:040CC000027F00228D
:1009E500EFD3948140037FFF22EBD3940340037F31
:1009F500FF22EF247F603004705890FEC4EDF0EBC9
:100A0500700653B6FB53B5FBBB010653B6FB43B5A6
:100A150004BB020643B60453B5FBEB6403703843CD
:100A2500B60443B504803090FEE4EDF0EB70065358
:100A3500B6F753B5F7BB010653B6F743B508BB0286
:100A45000643B60853B5F7BB030D43B60843B508CF
:0A0A5500800590FEE4EDF07F002222
:100EBB00EDD394035026ED700653EEFB53DFFBBDD1
:100ECB00010653EEFB43DF04BD020643EE0453DF82
:100EDB00FBBD030B43EE0443DF0480037FFF229033
:070EEB00FE62EFF07F002220
:080096008F138B148A158916E3
:10009E00E5136401600302020CF51DF51EF51FF554
:1000AE0020F521F517F51874402518F582740135E1
:1000BE0017F583E4F00518E51870020517648045FE
:1000CE001770E4E4F517F51874002518F58274001E
:1000DE003517F583E4F00518E518700205176480EE
:1000EE00451770E4AB14AA15A9161207C4FFE598BC
:1000FE00543F4FF598EF64C06008EF644060030210
:10010E0001C19000021208FC7F807E8D7D5B7C0019
:10011E001208468F1C8E1B8D1A8C19E4FFFE7D0172
:10012E00FCAB1CAA1BA91AA819C31208D840037F3E
:10013E00FF22C3E4951CF51CE4951BF51B74019579
:10014E001AF51AE49519F519AB14AA15A91690000B
:10015E00011207DDFB6401702CC28E538EFE538993
:10016E00BF5389CF438E40AF1CAE1BAD1AAC19786E
:10017E00081208E98F8D851C8BC2AB5389BF538F34
:10018E00FDD28E8062EB64027026538EEF438E0199
:10019E00538EF7438E04AF1CAE1BAD1AAC19780804
:1001AE001208E98FD6851CD753AFFB438E108037CC
:1001BE007FFF22AB14AA15A9161207C4FF70139065
:1001CE0000081207DDB40105438E20801A538EDF1E
:1001DE008015EFB480119000081207DDB4010543BD
:1001EE008780800353877FAB14AA15A9169000074A
:1001FE001207DD7004C29C8002D29C7F0022E513A0
:10020E0064026003020305F522F523F524F525F5B6
:10021E0026F517F51874E02518F58274013517F5D3
:10022E0083E4F00518E51870020517648045177011
:10023E00E4E4F517F51874802518F5827400351767
:10024E00F583E4F00518E51870020517648045176C
:10025E0070E4AB14AA15A9161207C4FF64C060059A
:10026E00EF64407075EFB4C005439A808003539AD3
:10027E007F9000021208FC7F807E8D7D5B7C0012D9
:10028E0008468F1C8E1B8D1A8C19E4FFFE7D01FC17
:10029E00AB1CAA1BA91AA819C31208D840037FFFCA
:1002AE0022C3E4951CF51CE4951BF51B7401951AED
:1002BE00F51AE49519F519538EEF538EF7438E0404
:1002CE00AF1CAE1BAD1AAC1978081208E98FD68593
:1002DE001CD753AFFB438E1080037FFF22AB14AAB3
:1002EE0015A9169000071207DDC454F0FFE59A54C5
:1002FE00EF4FF59A7F0022E5136403600302043981
:10030E00F527F528F529F52AF52BF517F51874605C
:10031E002518F58274023517F583E4F00518E518F3
:10032E00700205176440451770E4E4F517F518746C
:10033E00002518F58274013517F583E4F00518E5EC
:10034E0018700205176440451770E4AB14AA15A97E
:10035E00161207C4FF64C06008EF64406003020415
:10036E001CEFB4C00543AC80800353AC7F900002F9
:10037E001208FC7F807E8D7D5B7C001208468F1CF0
:10038E008E1B8D1A8C19E4FFFE7D01FCAB1CAA1B83
:10039E00A91AA819C31208D840037FFF22C3E495F7
:1003AE001CF51CE4951BF51B7401951AF51AE495C2
:1003BE0019F519AB14AA15A9169000011207DDFB49
:1003CE00B4031D43AC40AF1CAE1BAD1AAC1978087C
:1003DE001208E98FD4851CD553D1F043D10A803150
:1003EE00EB64027026538EEF53ACBF538EF7438EE1
:1003FE0004AF1CAE1BAD1AAC1978081208E98FD6E3
:10040E00851CD753AFFB438E1080067FFF227FFFE4
:10041E0022AB14AA15A9169000071207DDC454F0DA
:10042E00FFE5AC54EF4FF5AC7F0022E5136404609A
:10043E000302056DF52CF52DF52EF52FF530F5177C
:10044E00F51874A02518F58274023517F583E4F0BB
:10045E000518E518700205176420451770E4E4F5D9
:10046E0017F51874C02518F58274013517F583E455
:10047E00F00518E518700205176420451770E4ABF7
:10048E0014AA15A9161207C4FF64C06008EF6440D1
:10049E006003020550EFB4C005438480800353848B
:1004AE007F9000021208FC7F807E8D7D5B7C0012A7
:1004BE0008468F1C8E1B8D1A8C19E4FFFE7D01FCE5
:1004CE00AB1CAA1BA91AA819C31208D840037FFF98
:1004DE0022C3E4951CF51CE4951BF51B7401951ABB
:1004EE00F51AE49519F519AB14AA15A91690000181
:1004FE001207DDFBB4041D438440AF1CAE1BAD1AC6
:10050E00AC1978081208E98FD2851CD353D10F434A
:10051E00D1A08031EB64027026538EEF5384BF530B
:10052E008EF7438E04AF1CAE1BAD1AAC19780812B1
:10053E0008E98FD6851CD753AFFB438E1080067FFC
:10054E00FF227FFF22AB14AA15A9169000071207EF
:10055E00DDC454F0FFE58454EF4FF5847F00227F15
:01056E00FF8D
:01056F002269
:0A0FF2008F99751F01E51F70FC22A6
:100F8A001207C4FF600C120FF2740129F9E43AFA4D
:030F9A0080EE22C4
:0A0FFC008F9B752401E52470FC2290
:100F9D001207C4FF600C120FFC740129F9E43AFA30
:030FAD0080EE22B1
:0A1006008FAD752901E52970FC2269
:100FB0001207C4FF600C121006740129F9E43AFA12
:030FC00080EE229E
:0A1010008F85752E01E52E70FC227D
:100FC3001207C4FF600C121010740129F9E43AFAF5
:030FD30080EE228B
:05008E00AE07020FF2B5
:03002300020CC408
:100CC400C0E0C083C082C0D075D000C00730982077
:100CD400C298E520C394804003752000AF2005200E
:100CE40074002FF582E43400F583E599F07521054D
:100CF400309905C299751F00D007D0D0D082D08317
:030D0400D0E0320A
:03004300020B1697
:100B1600C0E0C083C082C0D075D000C007E59A305F
:100B2600E021539AFEE525C394804003752500AF66
:100B360025052574802FF582E43400F583E59BF0C6
:100B4600752605E59A30E106539AFD752400D0070F
:090B5600D0D0D082D083D0E0326F
:03008B00020B5F06
:100B5F00C0E0C083C082C0D075D000C007E5AC3004
:100B6F00E02153ACFEE52AC394404003752A00AF41
:100B7F002A052A74002FF582E43401F583E5ADF0E0
:100B8F00752B05E5AC30E10653ACFD752900D00798
:090B9F00D0D0D082D083D0E03226
:03009300020BA8B5
:100BA800C0E0C083C082C0D075D000C007E58430E3
:100BB800E0215384FEE52FC394204003752F00AF36
:100BC8002F052F74C02FF582E43401F583E585F0F5
:100BD800753005E58430E1065384FD752E00D00795
:090BE800D0D0D082D083D0E032DD
:03000000020FE606
:0C0FE600787FE4F6D8FD758130020962C6
:1007C400BB010689828A83E0225002E722BBFE0233
:0907D400E32289828A83E4932266
:1007DD00BB010CE58229F582E5833AF583E02250D1
:1007ED0006E92582F8E622BBFE06E92582F8E2221B
:0D07FD00E58229F582E5833AF583E4932235
:10080A0075F008758200EF2FFFEE33FECD33CDCCA5
:10081A0033CCC58233C5829BED9AEC99E582984028
:10082A000CF582EE9BFEED9AFDEC99FC0FD5F0D605
:10083A00E4CEFBE4CDFAE4CCF9A88222B800C1B92F
:10084A000059BA002DEC8BF084CFCECDFCE5F0CB6D
:10085A00F97818EF2FFFEE33FEED33FDEC33FCEBA6
:10086A0033FB10D703994004EB99FB0FD8E5E4F961
:10087A00FA227818EF2FFFEE33FEED33FDEC33FC4E
:10088A00C933C910D7059BE99A4007EC9BFCE99A42
:10089A00F90FD8E0E4C9FAE4CCFB2275F010EF2F87
:1008AA00FFEE33FEED33FDCC33CCC833C810D70787
:1008BA009BEC9AE899400AED9BFDEC9AFCE899F8C2
:0E08CA000FD5F0DAE4CDFBE4CCFAE4C8F92255
:1008D800EB9FF5F0EA9E42F0E99D42F0E89C45F076
:0108E80022ED
:1008E900E8600FECC313FCED13FDEE13FEEF13FFED
:0308F900D8F12211
:1008FC00BB010DE58229F582E5833AF583020939BE
:10090C005007E92582F802092CBBFE07E92582F87D
:10091C00020945E58229F582E5833AF583020952FD
:0D092C00E6FB08E6F908E6FA08E6CBF8223B
:0C093900E0F8A3E0F9A3E0FAA3E0FB2241
:0D094500E2FB08E2F908E2FA08E2CBF82232
:10095200E493F8740193F9740293FA740393FB22FB
:00000001FF
