:1002EC00750920E4F508FB7A0079087F04120003F5
:1002FC007509CFE4F508FB7A0079087F0212000338
:10030C00750930E4F508FB7A0079087F01020003D7
:100257001202ECC2C5C2A0C2A1C2A2C2A3C294C26A
:1002670095C2A6C2A77FFA12031C7FFA12031C7F4E
:10027700FA12031C7FFA12031CD2A0D2A1D2A2D277
:10028700A3D294D295D2A6D2A77FFA12031C7FFAE3
:0F02970012031C7FFA12031C7FFA12031C80B69D
:0F031C007D607C09ED1D70011C144C70F7DFF142
:01032B0022AF
:10000300EFD3940740037FFF221202A6FED394038B
:1000130040037FFF22EF7041EE700B90000112024C
:10002300BFF4529352941202A6B4010B9000011232
:1000330002BF4293F452941202A6FEB4020A900045
:10004300011202BF42934294EEB4030D90000112D9
:1000530002BFFEF45293EE4294EF64017043120226
:10006300A6FE700B9000011202BFF452915292EE61
:10007300B4010B9000011202BF4291F4529212029A
:10008300A6B4020A9000011202BF429142921202E8
:10009300A6B4030D9000011202BFFEF45291EE428A
:1000A30092EF640270431202A6FE700B90000112DD
:1000B30002BFF452955296EEB4010B900001120266
:1000C300BF4295F452961202A6B4020A900001129E
:1000D30002BF429542961202A6B4030D900001128C
:1000E30002BFFEF45295EE4296EF64037043120290
:1000F300A6FE700B9000011202BFF452B152B2EE91
:10010300B4010B9000011202BF42B1F452B21202C9
:10011300A6B4020A9000011202BF42B142B2120217
:10012300A6B4030D9000011202BFFEF452B1EE42D9
:10013300B2EF640470431202A6FE700B900001122A
:1001430002BFF452B352B4EEB4010B900001120299
:10015300BF42B3F452B41202A6B4020A90000112D1
:1001630002BF42B342B41202A6B4030D90000112BF
:1001730002BFFEF452B3EE42B4EF640570431202C1
:10018300A6FE700B9000011202BFF452C952CAEED0
:10019300B4010B9000011202BF42C9F452CA120209
:1001A300A6B4020A9000011202BF42C942CA120257
:1001B300A6B4030D9000011202BFFEF452C9EE4231
:1001C300CAEF640670431202A6FE700B9000011280
:1001D30002BFF452CB52CCEEB4010B9000011202D9
:1001E300BF42CBF452CC1202A6B4020A9000011211
:1001F30002BF42CB42CC1202A6B4030D90000112FF
:1002030002BFFEF452CBEE42CCEF640770431202FE
:10021300A6FF700B9000011202BFF452E152E2EF0D
:10022300B4010B9000011202BF42E1F452E2120248
:10023300A6B4020A9000011202BF42E142E2120296
:10024300A6B4030D9000011202BFFFF452E1EF4286
:04025300E27F002224
:0300000002032CCC
:0C032C00787FE4F6D8FD758109020257C5
:1002A600BB010689828A83E0225002E722BBFE0256
:0902B600E32289828A83E4932289
:1002BF00BB010CE58229F582E5833AF583E02250F4
:1002CF0006E92582F8E622BBFE06E92582F8E2223E
:0D02DF00E58229F582E5833AF583E4932258
:00000001FF
