:100F3500751D20E4F51CFB7A00791C7F04120570F1
:100F4500751DCFE4F51CFB7A00791C7F0212057034
:100F5500751D30E4F51CFB7A00791C7F01020570D4
:100F6500751C40751D017521007520C2751F017521
:100F75001E00752301E4F524FB7A00791C7F01121C
:0C0F850000967D017F01120EC053A23FB8
:010F9100223D
:10096200751C00751D01E51D6401451C7003C380E3
:1009720001D392A7E51D6402451C7003C38001D315
:1009820092A6E51D6403451C7003C38001D39295B2
:10099200E51D6404451C7003C38001D39294E51DD8
:1009A2006405451C7003C38001D392A3E51D640650
:1009B200451C7003C38001D392A2E51D6407451C48
:1009C2007003C38001D392A1E51D6408451C700326
:1009D200C38001D392A07F64121089051DE51D70AA
:1009E20002051CD39409E51C64809480500302091B
:0109F200689C
:0109F30022E1
:1009F400751C00751D01E51D6408451C7003C3804A
:100A040001D392A7E51D6407451C7003C38001D37D
:100A140092A6E51D6406451C7003C38001D392951C
:100A2400E51D6405451C7003C38001D39294E51D44
:100A34006404451C7003C38001D392A3E51D6403C1
:100A4400451C7003C38001D392A2E51D6402451CBA
:100A54007003C38001D392A1E51D6401451C70039A
:100A6400C38001D392A07F64121089051DE51D7017
:100A740002051CD39409E51C648094805003020988
:010A8400FA77
:010A8500224E
:100F9200120F35120F65D2AFC2C5E50BD3940040D4
:100FA20014D50C11900000E070051209F4800312B0
:0C0FB2000962E4F50B7F1412108980DE48
:0F1089007D607C09ED1D70011C144C70F7DFF1C8
:011098002235
:10057000EFD3940740037FFF221207C4FED39403F6
:1005800040037FFF22EF7041EE700B9000011207D5
:10059000DDF4529352941207C4B4010B900001127F
:1005A00007DD4293F452941207C4FEB4020A90008D
:1005B000011207DD42934294EEB4030D9000011244
:1005C00007DDFEF45293EE4294EF6401704312078C
:1005D000C4FE700B9000011207DDF452915292EEAE
:1005E000B4010B9000011207DD4291F45292120700
:1005F000C4B4020A9000011207DD42914292120730
:10060000C4B4030D9000011207DDFEF45291EE42D6
:1006100092EF640270431207C4FE700B9000011247
:1006200007DDF452955296EEB4010B9000011207CB
:10063000DD4295F452961207C4B4020A90000112EA
:1006400007DD429542961207C4B4030D90000112D3
:1006500007DDFEF45295EE4296EF640370431207F5
:10066000C4FE700B9000011207DDF452B152B2EEDD
:10067000B4010B9000011207DD42B1F452B212072F
:10068000C4B4020A9000011207DD42B142B212075F
:10069000C4B4030D9000011207DDFEF452B1EE4226
:1006A000B2EF640470431207C4FE700B9000011295
:1006B00007DDF452B352B4EEB4010B9000011207FF
:1006C000DD42B3F452B41207C4B4020A900001121E
:1006D00007DD42B342B41207C4B4030D9000011207
:1006E00007DDFEF452B3EE42B4EF64057043120727
:1006F000C4FE700B9000011207DDF452C952CAEE1D
:10070000B4010B9000011207DD42C9F452CA12076E
:10071000C4B4020A9000011207DD42C942CA12079E
:10072000C4B4030D9000011207DDFEF452C9EE427D
:10073000CAEF640670431207C4FE700B90000112EA
:1007400007DDF452CB52CCEEB4010B90000112073E
:10075000DD42CBF452CC1207C4B4020A900001125D
:1007600007DD42CB42CC1207C4B4030D9000011246
:1007700007DDFEF452CBEE42CCEF64077043120764
:10078000C4FF700B9000011207DDF452E152E2EF5A
:10079000B4010B9000011207DD42E1F452E21207AE
:1007A000C4B4020A9000011207DD42E142E21207DE
:1007B000C4B4030D9000011207DDFFF452E1EF42D3
:0407C000E27F0022B2
:100D8A00EFD3940140037FFF22EDD3940340037F06
:100D9A00FF22EF7004C2A98002D2A9ED700553B7F1
:100DAA00FDC2B9BD010553B7FDD2B9BD020543B7AE
:0E0DBA0002C2B9BD030543B702D2B97F0022C1
:100DC800EFD3940140037FFF22EDD3940340037FC8
:100DD800FF22EF7004C2AB8002D2ABED700553B7AF
:100DE800F7C2BBBD010553B7F7D2BBBD020543B778
:0E0DF80008C2BBBD030543B708D2BB7F002273
:100FE100EFD3940140037FFF22EDD3940340037FAD
:100FF100FF22EF25E025E0FFE5AF54FB4FF5AFE41D
:02100100FF22CC
:10100300EFD3940140037FFF22EDD3940340037F8A
:10101300FF22EFC43354E0FFE5AF54DF4FF5AFE4F5
:02102300FF22AA
:100FBE00EFD3940140037FFF22EDD3940340037FD0
:100FCE00FF22EFC4333354C0FFE5AF54BF4FF5AF2C
:030FDE00E4FF220B
:100E0600EFD3940140037FFF22EDD3940340037F89
:100E1600FF22EF7004C2A88002D2A8ED700553B776
:100E2600FEC2B8BD010553B7FED2B8BD020543B731
:0E0E360001C2B8BD030543B701D2B87F002248
:100E4400EFD3940140037FFF22EDD3940340037F4B
:100E5400FF22EF7004C2AA8002D2AAED700553B734
:100E6400FBC2BABD010553B7FBD2BABD020543B7F5
:0E0E740004C2BABD030543B704D2BA7F002200
:10102500EFD3940140037FFF22EFC454F0FFE58F17
:0810350054EF4FF58FE4FF2298
:10002600EFD3940140037FFF22EFC43354E0FFE592
:090036008F54DF4FF58FE4FF2227
:10000300EFD3940140037FFF22EFC4333354C0FF87
:0A001300E58F54BF4FF58FE4FF2284
:100E8200EFD3940140037FFF22EDD3940340037F0D
:100E9200FF22EF7004C2AD8002D2ADED700553B7F0
:100EA200DFC2BDBD010553B7DFD2BDBD020543B7E9
:0E0EB20020C2BDBD030543B720D2BD7F002284
:100C3400EDD3940340037FFF22EF30E10543E62028
:100C4400800353E6DFEF30E00543E610800353E60C
:100C5400EFED700653B6DF53B5DFBD010653B6DFC3
:100C640043B520BD020643B62053B5DFBD0306439A
:080C7400B62043B5207F0022E9
:100B0000EFD3940140037FFF22EBD3940340037F94
:100B1000FF22BF0112ED90FE817006E0547FF0804D
:100B200011E04480F0800BEF700890FE83E0548762
:100B30004DF0EB700653B6DF53B5DFBB010653B67D
:100B4000DF43B520BB020643B62053B5DFBB030627
:090B500043B62043B5207F0022CA
:100EC000EFD3940140037FFF22EDD3940340037FCF
:100ED000FF22EF7004C2AC8002D2ACED700553B7B4
:100EE000EFC2BCBD010553B7EFD2BCBD020543B78D
:0E0EF00010C2BCBD030543B710D2BC7F002268
:100D4A00EFD3940140037FFF22EDD3940340037F46
:100D5A00FF22E5AF54FE4FF5AFED700653B6FE53D2
:100D6A00B5FEBD010653B6FE43B501BD020643B644
:100D7A000153B5FEBD030643B60143B5017F002208
:100C7C00EFD3940140037FFF22EDD3940340037F15
:100C8C00FF22EF33333354F8FFE5AF54F74FF5AF92
:100C9C00ED700653EEFE53DFFEBD010653EEFE4330
:100CAC00DF01BD020643EE0153DFFEBD030643EE3A
:070CBC000143DF017F00226C
:10004600EFD3940140037FFF22EDD3940340037F57
:10005600FF22EFC454F0FFE5AF54EF4FF5AFED705C
:100066000653EEFD53DFFDBD010653EEFD43DF02F1
:10007600BD020643EE0253DFFDBD030643EE024317
:05008600DF027F0022F3
:100CC300EFD3940140037FFF22EDD3940340037FCE
:100CD300FF22EF25E0FFE5AF54FD4FF5AFED7006C2
:100CE30053B6FD53B5FDBD010653B6FD43B502BD75
:100CF300020643B60253B5FDBD030643B60243B530
:040D0300027F002249
:100A8600EFD3948140037FFF22EBD3940340037F8F
:100A9600FF22EF247F603004705890FEC4EDF0EB27
:100AA600700653B6FB53B5FBBB010653B6FB43B505
:100AB60004BB020643B60453B5FBEB64037038432C
:100AC600B60443B504803090FEE4EDF0EB700653B7
:100AD600B6F753B5F7BB010653B6F743B508BB02E5
:100AE6000643B60853B5F7BB030D43B60843B5082E
:0A0AF600800590FEE4EDF07F002281
:100EFE00EDD394035026ED700653EEFB53DFFBBD8E
:100F0E00010653EEFB43DF04BD020643EE0453DF3E
:100F1E00FBBD030B43EE0443DF0480037FFF2290EF
:070F2E00FE62EFF07F0022DC
:080096008F258B268A2789289B
:10009E00E5256401600302020CF508F509F50AF581
:1000AE000BF50CF529F52A7440252AF582740135D5
:1000BE0029F583E4F0052AE52A70020529648045B6
:1000CE002970E4E4F529F52A7400252AF5827400D6
:1000DE003529F583E4F0052AE52A700205296480A6
:1000EE00452970E4AB26AA27A9281207C4FFE59874
:1000FE00543F4FF598EF64C06008EF644060030210
:10010E0001C19000021208FC7F807E8D7D5B7C0019
:10011E001208468F2E8E2D8D2C8C2BE4FFFE7D012A
:10012E00FCAB2EAA2DA92CA82BC31208D840037FF6
:10013E00FF22C3E4952EF52EE4952DF52D74019531
:10014E002CF52CE4952BF52BAB26AA27A92890008D
:10015E00011207DDFB6401702CC28E538EFE538993
:10016E00BF5389CF438E40AF2EAE2DAD2CAC2B7826
:10017E00081208E98F8D852E8BC2AB5389BF538F22
:10018E00FDD28E8062EB64027026538EEF438E0199
:10019E00538EF7438E04AF2EAE2DAD2CAC2B7808BC
:1001AE001208E98FD6852ED753AFFB438E108037BA
:1001BE007FFF22AB26AA27A9281207C4FF7013902F
:1001CE0000081207DDB40105438E20801A538EDF1E
:1001DE008015EFB480119000081207DDB4010543BD
:1001EE008780800353877FAB26AA27A92890000714
:1001FE001207DD7004C29C8002D29C7F0022E5258E
:10020E0064026003020305F50DF50EF50FF510F50A
:10021E0011F529F52A74E0252AF58274013529F5A0
:10022E0083E4F0052AE52A700205296480452970C9
:10023E00E4E4F529F52A7480252AF582740035291F
:10024E00F583E4F0052AE52A700205296480452924
:10025E0070E4AB26AA27A9281207C4FF64C0600564
:10026E00EF64407075EFB4C005439A808003539AD3
:10027E007F9000021208FC7F807E8D7D5B7C0012D9
:10028E0008468F2E8E2D8D2C8C2BE4FFFE7D01FCCF
:10029E00AB2EAA2DA92CA82BC31208D840037FFF82
:1002AE0022C3E4952EF52EE4952DF52D7401952C93
:1002BE00F52CE4952BF52B538EEF538EF7438E04CE
:1002CE00AF2EAE2DAD2CAC2B78081208E98FD6854B
:1002DE002ED753AFFB438E1080037FFF22AB26AA8F
:1002EE0027A9289000071207DDC454F0FFE59A54A1
:1002FE00EF4FF59A7F0022E525640360030204396F
:10030E00F512F513F514F515F516F529F52A7460A1
:10031E00252AF58274023529F583E4F0052AE52AAB
:10032E00700205296440452970E4E4F529F52A7424
:10033E0000252AF58274013529F583E4F0052AE5B6
:10034E002A700205296440452970E4AB26AA27A924
:10035E00281207C4FF64C06008EF64406003020403
:10036E001CEFB4C00543AC80800353AC7F900002F9
:10037E001208FC7F807E8D7D5B7C001208468F2EDE
:10038E008E2D8D2C8C2BE4FFFE7D01FCAB2EAA2D29
:10039E00A92CA82BC31208D840037FFF22C3E495D3
:1003AE002EF52EE4952DF52D7401952CF52CE49556
:1003BE002BF52BAB26AA27A9289000011207DDFBEF
:1003CE00B4031D43AC40AF2EAE2DAD2CAC2B780834
:1003DE001208E98FD4852ED553D1F043D10A80313E
:1003EE00EB64027026538EEF53ACBF538EF7438EE1
:1003FE0004AF2EAE2DAD2CAC2B78081208E98FD69B
:10040E00852ED753AFFB438E1080067FFF227FFFD2
:10041E0022AB26AA27A9289000071207DDC454F0A4
:10042E00FFE5AC54EF4FF5AC7F0022E52564046088
:10043E000302056DF517F518F519F51AF51BF529D3
:10044E00F52A74A0252AF58274023529F583E4F085
:10045E00052AE52A700205296420452970E4E4F591
:10046E0029F52A74C0252AF58274013529F583E40D
:10047E00F0052AE52A700205296420452970E4ABAF
:10048E0026AA27A9281207C4FF64C06008EF64409B
:10049E006003020550EFB4C005438480800353848B
:1004AE007F9000021208FC7F807E8D7D5B7C0012A7
:1004BE0008468F2E8E2D8D2C8C2BE4FFFE7D01FC9D
:1004CE00AB2EAA2DA92CA82BC31208D840037FFF50
:1004DE0022C3E4952EF52EE4952DF52D7401952C61
:1004EE00F52CE4952BF52BAB26AA27A92890000115
:1004FE001207DDFBB4041D438440AF2EAE2DAD2C90
:10050E00AC2B78081208E98FD2852ED353D10F4326
:10051E00D1A08031EB64027026538EEF5384BF530B
:10052E008EF7438E04AF2EAE2DAD2CAC2B78081269
:10053E0008E98FD6852ED753AFFB438E1080067FEA
:10054E00FF227FFF22AB26AA27A9289000071207B9
:10055E00DDC454F0FFE58454EF4FF5847F00227F15
:01056E00FF8D
:01056F002269
:0A10A5008F99750A01E50A70FC221C
:10103D001207C4FF600C1210A5740129F9E43AFAE5
:03104D0080EE2210
:0A10AF008F9B750F01E50F70FC2206
:101050001207C4FF600C1210AF740129F9E43AFAC8
:0310600080EE22FD
:0A10B9008FAD751401E51470FC22E0
:101063001207C4FF600C1210B9740129F9E43AFAAB
:0310730080EE22EA
:0A10C3008F85751901E51970FC22F4
:101076001207C4FF600C1210C3740129F9E43AFA8E
:0310860080EE22D7
:05001D00AE070210A572
:03002300020D07C4
:100D0700C0E0C083C082C0D075D000C00730982033
:100D1700C298E50BC394804003750B00AF0B050B1E
:100D270074002FF582E43400F583E599F0750C051E
:100D3700309905C299750A00D007D0D0D082D083E8
:030D4700D0E032C7
:03004300020B5954
:100B5900C0E0C083C082C0D075D000C007E59A301C
:100B6900E021539AFEE510C394804003751000AF4D
:100B790010051074802FF582E43400F583E59BF0AD
:100B8900751105E59A30E106539AFD750F00D007F6
:090B9900D0D0D082D083D0E0322C
:03008B00020BA2C3
:100BA200C0E0C083C082C0D075D000C007E5AC30C1
:100BB200E02153ACFEE515C394404003751500AF28
:100BC20015051574002FF582E43401F583E5ADF0C7
:100BD200751605E5AC30E10653ACFD751400D0077F
:090BE200D0D0D082D083D0E032E3
:03009300020BEB72
:100BEB00C0E0C083C082C0D075D000C007E58430A0
:100BFB00E0215384FEE51AC394204003751A00AF1D
:100C0B001A051A74C02FF582E43401F583E585F0DB
:100C1B00751B05E58430E1065384FD751900D0077B
:090C2B00D0D0D082D083D0E03299
:0300000002109952
:0C109900787FE4F6D8FD75812E020F92DE
:1007C400BB010689828A83E0225002E722BBFE0233
:0907D400E32289828A83E4932266
:1007DD00BB010CE58229F582E5833AF583E02250D1
:1007ED0006E92582F8E622BBFE06E92582F8E2221B
:0D07FD00E58229F582E5833AF583E4932235
:10080A0075F008758200EF2FFFEE33FECD33CDCCA5
:10081A0033CCC58233C5829BED9AEC99E582984028
:10082A000CF582EE9BFEED9AFDEC99FC0FD5F0D605
:10083A00E4CEFBE4CDFAE4CCF9A88222B800C1B92F
:10084A000059BA002DEC8BF084CFCECDFCE5F0CB6D
:10085A00F97818EF2FFFEE33FEED33FDEC33FCEBA6
:10086A0033FB10D703994004EB99FB0FD8E5E4F961
:10087A00FA227818EF2FFFEE33FEED33FDEC33FC4E
:10088A00C933C910D7059BE99A4007EC9BFCE99A42
:10089A00F90FD8E0E4C9FAE4CCFB2275F010EF2F87
:1008AA00FFEE33FEED33FDCC33CCC833C810D70787
:1008BA009BEC9AE899400AED9BFDEC9AFCE899F8C2
:0E08CA000FD5F0DAE4CDFBE4CCFAE4C8F92255
:1008D800EB9FF5F0EA9E42F0E99D42F0E89C45F076
:0108E80022ED
:1008E900E8600FECC313FCED13FDEE13FEEF13FFED
:0308F900D8F12211
:1008FC00BB010DE58229F582E5833AF583020939BE
:10090C005007E92582F802092CBBFE07E92582F87D
:10091C00020945E58229F582E5833AF583020952FD
:0D092C00E6FB08E6F908E6FA08E6CBF8223B
:0C093900E0F8A3E0F9A3E0FAA3E0FB2241
:0D094500E2FB08E2F908E2FA08E2CBF82232
:10095200E493F8740193F9740293FA740393FB22FB
:00000001FF
