:1003C900750B20E4F50AFB7A00790A7F0412000311
:1003D900750BCFE4F50AFB7A00790A7F0212000354
:1003E900750B30E4F50AFB7A00790A7F01020003F4
:100257001203C9C2C5750800750901E5096401459E
:10026700087003C38001D392A7E5096402450870AB
:1002770003C38001D392A6E509640345087003C34D
:100287008001D39295E509640445087003C3800192
:10029700D39294E509640545087003C38001D3929E
:1002A700A3E509640645087003C38001D392A2E55C
:1002B70009640745087003C38001D392A1E5096467
:1002C7000845087003C38001D392A07F641203F925
:1002D7000509E50970020508D39408E508648094C8
:1002E700805003020262750800750901D3E509947D
:1002F70008E50864809480400302025CE50964080D
:1003070045087003C38001D392A7E5096407450830
:100317007003C38001D392A6E509640645087003FC
:10032700C38001D39295E509640545087003C3802E
:1003370001D39294E509640445087003C38001D38F
:1003470092A3E509640345087003C38001D392A211
:10035700E509640245087003C38001D392A1E5094A
:10036700640145087003C38001D392A07F64120320
:0C037700F90509E509700205080202F30F
:0F03F9007D607C09ED1D70011C144C70F7DFF165
:0104080022D1
:10000300EFD3940740037FFF22120383FED39403AD
:1000130040037FFF22EF7041EE700B90000112034B
:100023009CF452935294120383B4010B9000011277
:10003300039C4293F45294120383FEB4020A900089
:100043000112039C42934294EEB4030D90000112FB
:10005300039CFEF45293EE4294EF64017043120347
:1000630083FE700B90000112039CF452915292EEA6
:10007300B4010B90000112039C4291F452921203BB
:1000830083B4020A90000112039C4291429212032C
:1000930083B4030D90000112039CFEF45291EE42CF
:1000A30092EF64027043120383FE700B90000112FF
:1000B300039CF452955296EEB4010B900001120387
:1000C3009C4295F45296120383B4020A90000112E3
:1000D300039C42954296120383B4030D90000112D0
:1000E300039CFEF45295EE4296EF640370431203B1
:1000F30083FE700B90000112039CF452B152B2EED6
:10010300B4010B90000112039C42B1F452B21203EA
:1001130083B4020A90000112039C42B142B212035B
:1001230083B4030D90000112039CFEF452B1EE421E
:10013300B2EF64047043120383FE700B900001124C
:10014300039CF452B352B4EEB4010B9000011203BA
:100153009C42B3F452B4120383B4020A9000011216
:10016300039C42B342B4120383B4030D9000011203
:10017300039CFEF452B3EE42B4EF640570431203E2
:1001830083FE700B90000112039CF452C952CAEE15
:10019300B4010B90000112039C42C9F452CA12032A
:1001A30083B4020A90000112039C42C942CA12039B
:1001B30083B4030D90000112039CFEF452C9EE4276
:1001C300CAEF64067043120383FE700B90000112A2
:1001D300039CF452CB52CCEEB4010B9000011203FA
:1001E3009C42CBF452CC120383B4020A9000011256
:1001F300039C42CB42CC120383B4030D9000011243
:10020300039CFEF452CBEE42CCEF6407704312031F
:1002130083FF700B90000112039CF452E152E2EF52
:10022300B4010B90000112039C42E1F452E2120369
:1002330083B4020A90000112039C42E142E21203DA
:1002430083B4030D90000112039CFFF452E1EF42CB
:04025300E27F002224
:03000000020409EE
:0C040900787FE4F6D8FD75810B020257E5
:10038300BB010689828A83E0225002E722BBFE0278
:09039300E32289828A83E49322AB
:10039C00BB010CE58229F582E5833AF583E0225016
:1003AC0006E92582F8E622BBFE06E92582F8E22260
:0D03BC00E58229F582E5833AF583E493227A
:00000001FF
